{
  "contractName": "OrganDoanation",
  "abi": [
    {
      "inputs": [],
      "stateMutability": "nonpayable",
      "type": "constructor"
    },
    {
      "anonymous": false,
      "inputs": [
        {
          "indexed": false,
          "internalType": "address",
          "name": "ProcurementOrganizer",
          "type": "address"
        },
        {
          "indexed": false,
          "internalType": "uint256",
          "name": "Donor_ID",
          "type": "uint256"
        },
        {
          "indexed": false,
          "internalType": "enum OrganDoanation.OrganType",
          "name": "_OrganType_",
          "type": "uint8"
        }
      ],
      "name": "DonatedHeartisAvailable",
      "type": "event"
    },
    {
      "anonymous": false,
      "inputs": [
        {
          "indexed": false,
          "internalType": "address",
          "name": "PatientDoctor",
          "type": "address"
        }
      ],
      "name": "MatchingProcessStarted",
      "type": "event"
    },
    {
      "anonymous": false,
      "inputs": [
        {
          "indexed": false,
          "internalType": "address",
          "name": "TransplantTeamMember",
          "type": "address"
        },
        {
          "indexed": false,
          "internalType": "uint256",
          "name": "Donor_ID",
          "type": "uint256"
        }
      ],
      "name": "MedicalTestApproval",
      "type": "event"
    },
    {
      "anonymous": false,
      "inputs": [
        {
          "indexed": false,
          "internalType": "address",
          "name": "ProcurementOrganizer",
          "type": "address"
        }
      ],
      "name": "NewMatchedOrgan",
      "type": "event"
    },
    {
      "anonymous": false,
      "inputs": [
        {
          "indexed": false,
          "internalType": "address",
          "name": "PatientDoctor",
          "type": "address"
        },
        {
          "indexed": false,
          "internalType": "uint256",
          "name": "Patient_ID",
          "type": "uint256"
        },
        {
          "indexed": false,
          "internalType": "uint256",
          "name": "Patient_Age",
          "type": "uint256"
        },
        {
          "indexed": false,
          "internalType": "uint256",
          "name": "Patient_BMI",
          "type": "uint256"
        },
        {
          "indexed": false,
          "internalType": "enum OrganDoanation.Bloodtype",
          "name": "Bloodtype_",
          "type": "uint8"
        },
        {
          "indexed": false,
          "internalType": "enum OrganDoanation.OrganType",
          "name": "_OrganType_",
          "type": "uint8"
        }
      ],
      "name": "NewPatient_AddedOnTheWaitingList",
      "type": "event"
    },
    {
      "inputs": [
        {
          "internalType": "uint256",
          "name": "",
          "type": "uint256"
        }
      ],
      "name": "BMI",
      "outputs": [
        {
          "internalType": "uint256",
          "name": "",
          "type": "uint256"
        }
      ],
      "stateMutability": "view",
      "type": "function",
      "constant": true
    },
    {
      "inputs": [
        {
          "internalType": "uint256",
          "name": "",
          "type": "uint256"
        }
      ],
      "name": "Blood_type",
      "outputs": [
        {
          "internalType": "uint256",
          "name": "",
          "type": "uint256"
        }
      ],
      "stateMutability": "view",
      "type": "function",
      "constant": true
    },
    {
      "inputs": [],
      "name": "Bloodtype_",
      "outputs": [
        {
          "internalType": "enum OrganDoanation.Bloodtype",
          "name": "",
          "type": "uint8"
        }
      ],
      "stateMutability": "view",
      "type": "function",
      "constant": true
    },
    {
      "inputs": [],
      "name": "Donor_BloodType",
      "outputs": [
        {
          "internalType": "uint256",
          "name": "",
          "type": "uint256"
        }
      ],
      "stateMutability": "view",
      "type": "function",
      "constant": true
    },
    {
      "inputs": [],
      "name": "Donor_ID",
      "outputs": [
        {
          "internalType": "uint256",
          "name": "",
          "type": "uint256"
        }
      ],
      "stateMutability": "view",
      "type": "function",
      "constant": true
    },
    {
      "inputs": [],
      "name": "Donor_MaxBMI",
      "outputs": [
        {
          "internalType": "uint256",
          "name": "",
          "type": "uint256"
        }
      ],
      "stateMutability": "view",
      "type": "function",
      "constant": true
    },
    {
      "inputs": [],
      "name": "Donor_MinBMI",
      "outputs": [
        {
          "internalType": "uint256",
          "name": "",
          "type": "uint256"
        }
      ],
      "stateMutability": "view",
      "type": "function",
      "constant": true
    },
    {
      "inputs": [],
      "name": "Donor_OrganType",
      "outputs": [
        {
          "internalType": "uint256",
          "name": "",
          "type": "uint256"
        }
      ],
      "stateMutability": "view",
      "type": "function",
      "constant": true
    },
    {
      "inputs": [
        {
          "internalType": "uint256",
          "name": "",
          "type": "uint256"
        }
      ],
      "name": "Matched",
      "outputs": [
        {
          "internalType": "uint256",
          "name": "",
          "type": "uint256"
        }
      ],
      "stateMutability": "view",
      "type": "function",
      "constant": true
    },
    {
      "inputs": [],
      "name": "Max_Age",
      "outputs": [
        {
          "internalType": "uint256",
          "name": "",
          "type": "uint256"
        }
      ],
      "stateMutability": "view",
      "type": "function",
      "constant": true
    },
    {
      "inputs": [],
      "name": "Min_Age",
      "outputs": [
        {
          "internalType": "uint256",
          "name": "",
          "type": "uint256"
        }
      ],
      "stateMutability": "view",
      "type": "function",
      "constant": true
    },
    {
      "inputs": [
        {
          "internalType": "uint256",
          "name": "",
          "type": "uint256"
        }
      ],
      "name": "NeededOrganType",
      "outputs": [
        {
          "internalType": "uint256",
          "name": "",
          "type": "uint256"
        }
      ],
      "stateMutability": "view",
      "type": "function",
      "constant": true
    },
    {
      "inputs": [],
      "name": "OrganMatchingOrganizer",
      "outputs": [
        {
          "internalType": "address",
          "name": "",
          "type": "address"
        }
      ],
      "stateMutability": "view",
      "type": "function",
      "constant": true
    },
    {
      "inputs": [
        {
          "internalType": "address",
          "name": "",
          "type": "address"
        }
      ],
      "name": "PatientDoctor",
      "outputs": [
        {
          "internalType": "bool",
          "name": "",
          "type": "bool"
        }
      ],
      "stateMutability": "view",
      "type": "function",
      "constant": true
    },
    {
      "inputs": [
        {
          "internalType": "uint256",
          "name": "",
          "type": "uint256"
        }
      ],
      "name": "PatientValidity",
      "outputs": [
        {
          "internalType": "bool",
          "name": "",
          "type": "bool"
        }
      ],
      "stateMutability": "view",
      "type": "function",
      "constant": true
    },
    {
      "inputs": [],
      "name": "Patient_Age",
      "outputs": [
        {
          "internalType": "uint256",
          "name": "",
          "type": "uint256"
        }
      ],
      "stateMutability": "view",
      "type": "function",
      "constant": true
    },
    {
      "inputs": [],
      "name": "Patient_BMI",
      "outputs": [
        {
          "internalType": "uint256",
          "name": "",
          "type": "uint256"
        }
      ],
      "stateMutability": "view",
      "type": "function",
      "constant": true
    },
    {
      "inputs": [],
      "name": "Patient_ID",
      "outputs": [
        {
          "internalType": "uint256",
          "name": "",
          "type": "uint256"
        }
      ],
      "stateMutability": "view",
      "type": "function",
      "constant": true
    },
    {
      "inputs": [
        {
          "internalType": "uint256",
          "name": "",
          "type": "uint256"
        }
      ],
      "name": "PatientsID",
      "outputs": [
        {
          "internalType": "uint256",
          "name": "",
          "type": "uint256"
        }
      ],
      "stateMutability": "view",
      "type": "function",
      "constant": true
    },
    {
      "inputs": [
        {
          "internalType": "uint256",
          "name": "",
          "type": "uint256"
        }
      ],
      "name": "Patients_age",
      "outputs": [
        {
          "internalType": "uint256",
          "name": "",
          "type": "uint256"
        }
      ],
      "stateMutability": "view",
      "type": "function",
      "constant": true
    },
    {
      "inputs": [],
      "name": "ProcurementOrganizer",
      "outputs": [
        {
          "internalType": "address",
          "name": "",
          "type": "address"
        }
      ],
      "stateMutability": "view",
      "type": "function",
      "constant": true
    },
    {
      "inputs": [
        {
          "internalType": "address",
          "name": "",
          "type": "address"
        }
      ],
      "name": "TransplantTeamMember",
      "outputs": [
        {
          "internalType": "bool",
          "name": "",
          "type": "bool"
        }
      ],
      "stateMutability": "view",
      "type": "function",
      "constant": true
    },
    {
      "inputs": [],
      "name": "_OrganType_",
      "outputs": [
        {
          "internalType": "enum OrganDoanation.OrganType",
          "name": "",
          "type": "uint8"
        }
      ],
      "stateMutability": "view",
      "type": "function",
      "constant": true
    },
    {
      "inputs": [],
      "name": "startTime",
      "outputs": [
        {
          "internalType": "uint256",
          "name": "",
          "type": "uint256"
        }
      ],
      "stateMutability": "view",
      "type": "function",
      "constant": true
    },
    {
      "inputs": [
        {
          "internalType": "address",
          "name": "user",
          "type": "address"
        }
      ],
      "name": "AssigningPatientDoctors",
      "outputs": [],
      "stateMutability": "nonpayable",
      "type": "function"
    },
    {
      "inputs": [
        {
          "internalType": "address",
          "name": "user",
          "type": "address"
        }
      ],
      "name": "getPatientDoctorTest",
      "outputs": [
        {
          "internalType": "bool",
          "name": "",
          "type": "bool"
        }
      ],
      "stateMutability": "view",
      "type": "function",
      "constant": true
    },
    {
      "inputs": [
        {
          "internalType": "address",
          "name": "user",
          "type": "address"
        }
      ],
      "name": "AssigningTransplantTeamMember",
      "outputs": [],
      "stateMutability": "nonpayable",
      "type": "function"
    },
    {
      "inputs": [
        {
          "internalType": "address",
          "name": "user",
          "type": "address"
        }
      ],
      "name": "getTransplantTeamMemberTest",
      "outputs": [
        {
          "internalType": "bool",
          "name": "",
          "type": "bool"
        }
      ],
      "stateMutability": "view",
      "type": "function",
      "constant": true
    },
    {
      "inputs": [
        {
          "internalType": "uint256",
          "name": "ID",
          "type": "uint256"
        },
        {
          "internalType": "uint256",
          "name": "_age",
          "type": "uint256"
        },
        {
          "internalType": "uint256",
          "name": "_BMI",
          "type": "uint256"
        },
        {
          "internalType": "uint256",
          "name": "_BloodType",
          "type": "uint256"
        },
        {
          "internalType": "uint256",
          "name": "_OrganType",
          "type": "uint256"
        }
      ],
      "name": "AddingNewPatient",
      "outputs": [],
      "stateMutability": "nonpayable",
      "type": "function"
    },
    {
      "inputs": [
        {
          "internalType": "uint256",
          "name": "DonorID",
          "type": "uint256"
        }
      ],
      "name": "TestApproval",
      "outputs": [],
      "stateMutability": "nonpayable",
      "type": "function"
    },
    {
      "inputs": [
        {
          "internalType": "uint256",
          "name": "DonorID",
          "type": "uint256"
        },
        {
          "internalType": "enum OrganDoanation.OrganType",
          "name": "_OrganType",
          "type": "uint8"
        }
      ],
      "name": "RegisteringNewDonor",
      "outputs": [],
      "stateMutability": "nonpayable",
      "type": "function"
    },
    {
      "inputs": [
        {
          "internalType": "uint256",
          "name": "_MinAge",
          "type": "uint256"
        },
        {
          "internalType": "uint256",
          "name": "_MaxAge",
          "type": "uint256"
        },
        {
          "internalType": "uint256",
          "name": "_BloodType",
          "type": "uint256"
        },
        {
          "internalType": "uint256",
          "name": "_MinBMI",
          "type": "uint256"
        },
        {
          "internalType": "uint256",
          "name": "_MaxBMI",
          "type": "uint256"
        },
        {
          "internalType": "uint256",
          "name": "_OrganType",
          "type": "uint256"
        }
      ],
      "name": "MatchingProcess",
      "outputs": [],
      "stateMutability": "nonpayable",
      "type": "function"
    }
  ],
  "bytecode": "0x608060405234801561001057600080fd5b50600080546001600160a01b03199081163390811790925560018054909116738b0ed0582af7a86e90a7cd0f6e1228f03b6b9a72179055426015556040519081527fedc032c60f34f13267c00b2a9ee1af2f81fb39d4023ea01191d96dc291c26a8b9060200160405180910390a1610ea98061008d6000396000f3fe608060405234801561001057600080fd5b50600436106101f05760003560e01c8063846d85c61161010f578063cc311eb6116100a2578063d950c7cc11610071578063d950c7cc146103f6578063e59568cd14610421578063eac5784314610434578063f5479c441461044757600080fd5b8063cc311eb6146103c8578063d45a7a04146103d1578063d79ebcd6146103e4578063d8f0837b146103ed57600080fd5b8063964df0ff116100de578063964df0ff1461038657806399c53c0e14610399578063a99531d5146103ac578063aef93187146103b557600080fd5b8063846d85c61461035857806387594c6f1461036157806389729a9e1461036a57806391a406021461037357600080fd5b806337119f641161018757806362b70fed1161015657806362b70fed14610310578063651342ef1461032a5780636cb2055e1461033d57806378e979251461034f57600080fd5b806337119f64146102a45780633e814e39146102b75780634636ef6b146102da5780635622e566146102ed57600080fd5b80632052b20a116101c35780632052b20a1461026c5780632b384cc91461027f5780632cb26d38146102925780633589eaf51461029b57600080fd5b806306cdd146146101f55780630e12839e1461021b5780631ca4c358146102305780631dec3ca314610263575b600080fd5b610208610203366004610be3565b61045a565b6040519081526020015b60405180910390f35b61022e610229366004610be3565b61047b565b005b61025361023e366004610bfc565b60036020526000908152604090205460ff1681565b6040519015158152602001610212565b61020860065481565b61022e61027a366004610c2c565b6104f4565b61020861028d366004610be3565b6107a9565b61020860095481565b610208600d5481565b6102086102b2366004610be3565b6107b9565b6102536102c5366004610bfc565b60026020526000908152604090205460ff1681565b6102086102e8366004610be3565b6107c9565b6102536102fb366004610be3565b600e6020526000908152604090205460ff1681565b60165461031d9060ff1681565b6040516102129190610ca6565b610253610338366004610bfc565b6107d9565b60165461031d90610100900460ff1681565b61020860155481565b61020860085481565b61020860045481565b61020860055481565b61022e610381366004610cb9565b610830565b610208610394366004610be3565b610a2b565b6102536103a7366004610bfc565b610a3b565b610208600a5481565b61022e6103c3366004610bfc565b610a92565b610208600c5481565b61022e6103df366004610bfc565b610ae0565b61020860075481565b610208600b5481565b600054610409906001600160a01b031681565b6040516001600160a01b039091168152602001610212565b61022e61042f366004610cf4565b610b2e565b600154610409906001600160a01b031681565b610208610455366004610be3565b610bd3565b6014818154811061046a57600080fd5b600091825260209091200154905081565b3360009081526002602052604090205460ff166104b35760405162461bcd60e51b81526004016104aa90610d28565b60405180910390fd5b600481905560408051338152602081018390527fa07aea95ed450317d3530ce5fe43525fa15f13755159ab4322f740cc556d1cb1910160405180910390a150565b6001546001600160a01b0316331461051e5760405162461bcd60e51b81526004016104aa90610d28565b60078690556008859055600584905560068190556009839055600a82905560005b60105481101561076d57600e60006010838154811061056057610560610d77565b6000918252602080832090910154835282019290925260400190205460ff16156105e65760405162461bcd60e51b815260206004820152603160248201527f5468652070617469656e742068617320616c7265616479206265656e206d617460448201527031b432b2103bb4ba341030903237b737b960791b60648201526084016104aa565b81600f82815481106105fa576105fa610d77565b906000526020600020015414801561063057506007546011828154811061062357610623610d77565b9060005260206000200154115b801561065a57506008546011828154811061064d5761064d610d77565b9060005260206000200154105b80156106825750846012828154811061067557610675610d77565b9060005260206000200154145b80156106ac57506009546013828154811061069f5761069f610d77565b9060005260206000200154115b80156106d65750600a54601382815481106106c9576106c9610d77565b9060005260206000200154105b1561075b576014601082815481106106f0576106f0610d77565b60009182526020808320909101548354600181810186559484529183209091015560108054600e9291908590811061072a5761072a610d77565b9060005260206000200154815260200190815260200160002060006101000a81548160ff0219169083151502179055505b8061076581610d8d565b91505061053f565b506040513381527fe26782269f3811e4f8e5ba21782bd088e7b8115520af0111aef48f24312ddb4d9060200160405180910390a1505050505050565b6012818154811061046a57600080fd5b600f818154811061046a57600080fd5b6013818154811061046a57600080fd5b6001600160a01b03811660009081526003602052604081205460ff166108115760405162461bcd60e51b81526004016104aa90610db4565b506001600160a01b031660009081526003602052604090205460ff1690565b3360009081526003602052604090205460ff1661085f5760405162461bcd60e51b81526004016104aa90610d28565b600b859055600c849055600d83905581600381111561088057610880610c6f565b6016805460ff1916600183600381111561089c5761089c610c6f565b02179055508060038111156108b3576108b3610c6f565b6016805461ff0019166101008360038111156108d1576108d1610c6f565b0217905550600b80546010805460018181019092557f1b6847dc741a1b0cd08d278845f9d819d87b734759afb55fe2de5cb82a9ae6720191909155600f80548083019091557f8d1108e10bcb7c27dddfc02ed9d693a074039d026cf4ea4240b40f7d581ac80201839055600c8054601180548085019091557f31ecc21a745e3968a04e9570e4425bc18fa8019c68028196b546d1669c200c680155601280548084019091557fbb8a6a4669ba250d26cd7a459eca9d215f8307e33aebe50379bc5a3617ec344401859055600d546013805493840181556000527f66de8ffda797e3de9c05e8fc57b3bf0ec28a930d40b0d285d93c06501cf6a090909201829055915491546016546040517f914a4e81d757aa34e292d6b1723c5646811e6d5f04484265aed7de7596f0a2d694610a1c94339491939192909160ff808216926101009092041690610df7565b60405180910390a15050505050565b6010818154811061046a57600080fd5b6001600160a01b03811660009081526002602052604081205460ff16610a735760405162461bcd60e51b81526004016104aa90610db4565b506001600160a01b031660009081526002602052604090205460ff1690565b6000546001600160a01b03163314610abc5760405162461bcd60e51b81526004016104aa90610d28565b6001600160a01b03166000908152600360205260409020805460ff19166001179055565b6000546001600160a01b03163314610b0a5760405162461bcd60e51b81526004016104aa90610d28565b6001600160a01b03166000908152600260205260409020805460ff19166001179055565b6000546001600160a01b03163314610b585760405162461bcd60e51b81526004016104aa90610d28565b60048290556016805482919061ff001916610100836003811115610b7e57610b7e610c6f565b02179055507fc092f36603dca9dd1ed0358e7d900630b04054d59efdf774a34a3fa48e9cdeb833600454601660019054906101000a900460ff16604051610bc793929190610e45565b60405180910390a15050565b6011818154811061046a57600080fd5b600060208284031215610bf557600080fd5b5035919050565b600060208284031215610c0e57600080fd5b81356001600160a01b0381168114610c2557600080fd5b9392505050565b60008060008060008060c08789031215610c4557600080fd5b505084359660208601359650604086013595606081013595506080810135945060a0013592509050565b634e487b7160e01b600052602160045260246000fd5b60048110610ca357634e487b7160e01b600052602160045260246000fd5b50565b60208101610cb383610c85565b91905290565b600080600080600060a08688031215610cd157600080fd5b505083359560208501359550604085013594606081013594506080013592509050565b60008060408385031215610d0757600080fd5b82359150602083013560048110610d1d57600080fd5b809150509250929050565b6020808252602f908201527f5468652073656e646572206973206e6f7420656c696769626c6520746f20727560408201526e37103a3434b990333ab731ba34b7b760891b606082015260800190565b634e487b7160e01b600052603260045260246000fd5b600060018201610dad57634e487b7160e01b600052601160045260246000fd5b5060010190565b60208082526023908201527f7573657220646f6573206e6f7420657869737420696e20746865206d6170706960408201526237339760e91b606082015260800190565b6001600160a01b038716815260208101869052604081018590526060810184905260c08101610e2584610c85565b836080830152610e3483610c85565b8260a0830152979650505050505050565b6001600160a01b03841681526020810183905260608101610e6583610c85565b82604083015294935050505056fea2646970667358221220044e6e3ac915587ac7536e6c06088fe2fd6b1d6d3c3adbbe7828053d14fc387264736f6c63430008120033",
  "immutableReferences": {},
  "source": "// SPDX-License-Identifier: GPL-3.0\r\npragma solidity >=0.7.0 <0.9.0;\r\n\r\ncontract OrganDoanation {\r\naddress public ProcurementOrganizer;\r\naddress public OrganMatchingOrganizer;\r\nmapping(address => bool) public TransplantTeamMember; // only authorized Hospital Transplant Team Members are allowed\r\nmapping(address => bool) public PatientDoctor; \r\nuint public Donor_ID;\r\nuint public Donor_BloodType;\r\nuint public Donor_OrganType;\r\nuint public Min_Age;\r\nuint public Max_Age;\r\nuint public Donor_MinBMI;\r\nuint public Donor_MaxBMI;\r\nuint public Patient_ID; // address Patient_EA; \r\nuint public Patient_Age;\r\nuint public Patient_BMI;\r\nmapping(uint => bool) public PatientValidity; //Used to ensure that patient selection is not repeated\r\nuint [] public NeededOrganType;\r\nuint [] public PatientsID;\r\nuint []  public Patients_age;\r\nuint [] public Blood_type;\r\nuint [] public BMI;\r\nuint [] public Matched; \r\nuint public startTime;\r\nenum Bloodtype {A, B, AB, O}\r\nBloodtype public Bloodtype_;\r\nenum OrganType {Heart, Lung, Liver, Kidney}\r\nOrganType public _OrganType_;\r\n\r\n// Events\r\nevent MatchingProcessStarted (address PatientDoctor);\r\nevent NewPatient_AddedOnTheWaitingList (address PatientDoctor, uint Patient_ID, uint Patient_Age, uint Patient_BMI, Bloodtype Bloodtype_ , OrganType _OrganType_); \r\nevent MedicalTestApproval (address TransplantTeamMember, uint Donor_ID); \r\nevent DonatedHeartisAvailable (address ProcurementOrganizer, uint Donor_ID, OrganType _OrganType_);\r\nevent NewMatchedOrgan (address ProcurementOrganizer);\r\n\r\nconstructor()  {\r\n    ProcurementOrganizer = msg.sender;\r\n    OrganMatchingOrganizer= 0x8B0ed0582Af7A86E90A7CD0F6e1228f03B6b9A72;\r\n    startTime = block.timestamp;\r\n    emit MatchingProcessStarted(ProcurementOrganizer);\r\n}\r\n\r\n\r\n//Defining Modifiers \r\nmodifier onlyPatientDoctor() {\r\n    require(PatientDoctor[msg.sender], \"The sender is not eligible to run this function\");\r\n    _;\r\n}\r\nmodifier onlyTransplantTeamMember() {\r\n    require(TransplantTeamMember[msg.sender], \"The sender is not eligible to run this function\");\r\n    _;\r\n}\r\nmodifier onlyProcurementOrganizer() {\r\n    require(ProcurementOrganizer == msg.sender, \"The sender is not eligible to run this function\");\r\n    _;\r\n}\r\nmodifier onlyOrganMatchingOrganizer() {\r\n    require(OrganMatchingOrganizer == msg.sender, \"The sender is not eligible to run this function\");\r\n    _;\r\n}\r\n// Hospital Transplant Team Members Authorization Function\r\n    function AssigningPatientDoctors (address user) public onlyProcurementOrganizer {\r\n        PatientDoctor[user]=true;\r\n    }\r\n    function getPatientDoctorTest (address user) public view returns(bool) {\r\n        require(PatientDoctor[user], \"user does not exist in the mapping.\");\r\n        return PatientDoctor[user];\r\n    }\r\n     function AssigningTransplantTeamMember (address user) public onlyProcurementOrganizer {\r\n        TransplantTeamMember [user]=true;\r\n    } \r\n    function getTransplantTeamMemberTest (address user) public view returns(bool) {\r\n        require(TransplantTeamMember[user], \"user does not exist in the mapping.\");\r\n        return TransplantTeamMember[user];\r\n    }\r\n\r\n\r\n    function AddingNewPatient(uint ID, uint _age, uint _BMI, uint _BloodType, uint _OrganType) public onlyPatientDoctor{\r\n    Patient_ID = ID;\r\n    Patient_Age = _age;\r\n    Patient_BMI= _BMI;\r\n    Bloodtype_ = Bloodtype(_BloodType);\r\n    _OrganType_ = OrganType(_OrganType);\r\n    PatientsID.push(Patient_ID);\r\n    NeededOrganType.push(_OrganType);\r\n    Patients_age.push(Patient_Age);    \r\n    Blood_type.push(_BloodType);\r\n    BMI.push(Patient_BMI);\r\n        emit NewPatient_AddedOnTheWaitingList(msg.sender, Patient_ID, Patient_Age, Patient_BMI, Bloodtype_ , _OrganType_);\r\n    \r\n    }\r\n    \r\n    function TestApproval(uint DonorID) public onlyTransplantTeamMember{\r\n        Donor_ID = DonorID;\r\n        emit MedicalTestApproval(msg.sender, Donor_ID); \r\n    }\r\n    function RegisteringNewDonor (uint DonorID, OrganType _OrganType ) public onlyProcurementOrganizer{\r\n        Donor_ID = DonorID;\r\n        _OrganType_ = OrganType(_OrganType);\r\n        emit DonatedHeartisAvailable(msg.sender, Donor_ID,  _OrganType_ );\r\n    }\r\n\r\n    function MatchingProcess (uint _MinAge, uint _MaxAge, uint _BloodType, uint _MinBMI, uint _MaxBMI, uint _OrganType) public onlyOrganMatchingOrganizer{\r\n        Min_Age = _MinAge;\r\n        Max_Age = _MaxAge;\r\n        Donor_BloodType = _BloodType;\r\n        Donor_OrganType = _OrganType;\r\n        Donor_MinBMI = _MinBMI;\r\n        Donor_MaxBMI = _MaxBMI;\r\n        \r\n         for (uint i = 0; i < PatientsID.length; i++ ) {\r\n             require(PatientValidity[PatientsID[i]]==false, \"The patient has already been matched with a donor\");\r\n            if ( \r\n            NeededOrganType[i] == _OrganType &&\r\n            Patients_age[i]> Min_Age &&\r\n            Patients_age[i] < Max_Age &&\r\n            Blood_type[i] == _BloodType &&\r\n            BMI[i]> Donor_MinBMI &&\r\n            BMI[i] < Donor_MaxBMI) \r\n            { \r\n              Matched.push(PatientsID[i]);\r\n              PatientValidity[PatientsID[i]]=true; \r\n            }\r\n         }\r\n    emit NewMatchedOrgan (msg.sender);          \r\n    }}",
  "sourcePath": "C:\\Users\\DELL\\Desktop\\organchain\\web3\\contracts\\OrganDonation.sol",
  "compiler": {
    "name": "solc",
    "version": "0.8.18+commit.87f61d96.Emscripten.clang"
  },
  "schemaVersion": "3.4.11",
  "updatedAt": "2023-03-30T02:08:18.670Z",
  "networkType": "ethereum",
  "devdoc": {
    "kind": "dev",
    "methods": {},
    "version": 1
  },
  "userdoc": {
    "kind": "user",
    "methods": {},
    "version": 1
  }
}