{
  "contractName": "OrganTransplantation",
  "abi": [
    {
      "inputs": [],
      "stateMutability": "nonpayable",
      "type": "constructor"
    },
    {
      "anonymous": false,
      "inputs": [
        {
          "indexed": false,
          "internalType": "address",
          "name": "transporter",
          "type": "address"
        }
      ],
      "name": "DeliveryEnd",
      "type": "event"
    },
    {
      "anonymous": false,
      "inputs": [
        {
          "indexed": false,
          "internalType": "address",
          "name": "transporter",
          "type": "address"
        }
      ],
      "name": "DeliveryStart",
      "type": "event"
    },
    {
      "anonymous": false,
      "inputs": [
        {
          "indexed": false,
          "internalType": "address",
          "name": "DonorSurgeon",
          "type": "address"
        },
        {
          "indexed": false,
          "internalType": "uint256",
          "name": "Donor_ID",
          "type": "uint256"
        }
      ],
      "name": "DonatedHeartisRemoved",
      "type": "event"
    },
    {
      "anonymous": false,
      "inputs": [
        {
          "indexed": false,
          "internalType": "address",
          "name": "DonorSurgeon",
          "type": "address"
        },
        {
          "indexed": false,
          "internalType": "uint256",
          "name": "Donor_ID",
          "type": "uint256"
        }
      ],
      "name": "DonatedLiverisRemoved",
      "type": "event"
    },
    {
      "anonymous": false,
      "inputs": [
        {
          "indexed": true,
          "internalType": "address",
          "name": "TransplantSurgeon",
          "type": "address"
        }
      ],
      "name": "DonatedOrganisReceived",
      "type": "event"
    },
    {
      "anonymous": false,
      "inputs": [
        {
          "indexed": false,
          "internalType": "address",
          "name": "DonorSurgeon",
          "type": "address"
        },
        {
          "indexed": false,
          "internalType": "uint256",
          "name": "Donor_ID",
          "type": "uint256"
        }
      ],
      "name": "DonatedkidneyisRemoved",
      "type": "event"
    },
    {
      "anonymous": false,
      "inputs": [
        {
          "indexed": false,
          "internalType": "address",
          "name": "DonorSurgeon",
          "type": "address"
        },
        {
          "indexed": false,
          "internalType": "uint256",
          "name": "Donor_ID",
          "type": "uint256"
        }
      ],
      "name": "DonatedlungisRemoved",
      "type": "event"
    },
    {
      "anonymous": false,
      "inputs": [
        {
          "indexed": true,
          "internalType": "address",
          "name": "DonorSurgeon",
          "type": "address"
        }
      ],
      "name": "TransplantationProcessStarted",
      "type": "event"
    },
    {
      "anonymous": false,
      "inputs": [
        {
          "indexed": false,
          "internalType": "address",
          "name": "TransplantSurgeon",
          "type": "address"
        },
        {
          "indexed": false,
          "internalType": "uint256",
          "name": "PatientID",
          "type": "uint256"
        },
        {
          "indexed": false,
          "internalType": "uint256",
          "name": "TransplantationTime",
          "type": "uint256"
        },
        {
          "indexed": false,
          "internalType": "uint256",
          "name": "TransplantationDate",
          "type": "uint256"
        }
      ],
      "name": "Transplantationend",
      "type": "event"
    },
    {
      "inputs": [],
      "name": "DonatedOrganType",
      "outputs": [
        {
          "internalType": "enum OrganTransplantation.OrganType",
          "name": "",
          "type": "uint8"
        }
      ],
      "stateMutability": "view",
      "type": "function",
      "constant": true
    },
    {
      "inputs": [],
      "name": "DonorSurgeon",
      "outputs": [
        {
          "internalType": "address",
          "name": "",
          "type": "address"
        }
      ],
      "stateMutability": "view",
      "type": "function",
      "constant": true
    },
    {
      "inputs": [],
      "name": "Organstate",
      "outputs": [
        {
          "internalType": "enum OrganTransplantation.OrganStatus",
          "name": "",
          "type": "uint8"
        }
      ],
      "stateMutability": "view",
      "type": "function",
      "constant": true
    },
    {
      "inputs": [],
      "name": "TransplantSurgeon",
      "outputs": [
        {
          "internalType": "address",
          "name": "",
          "type": "address"
        }
      ],
      "stateMutability": "view",
      "type": "function",
      "constant": true
    },
    {
      "inputs": [
        {
          "internalType": "address",
          "name": "user",
          "type": "address"
        }
      ],
      "name": "assigningtransporter",
      "outputs": [],
      "stateMutability": "nonpayable",
      "type": "function"
    },
    {
      "inputs": [
        {
          "internalType": "address",
          "name": "user",
          "type": "address"
        }
      ],
      "name": "getTransporterTest",
      "outputs": [
        {
          "internalType": "bool",
          "name": "",
          "type": "bool"
        }
      ],
      "stateMutability": "view",
      "type": "function",
      "constant": true
    },
    {
      "inputs": [
        {
          "internalType": "uint256",
          "name": "donorID",
          "type": "uint256"
        },
        {
          "internalType": "enum OrganTransplantation.OrganType",
          "name": "_DonatedOrganType",
          "type": "uint8"
        },
        {
          "internalType": "uint256",
          "name": "date",
          "type": "uint256"
        },
        {
          "internalType": "uint256",
          "name": "time",
          "type": "uint256"
        }
      ],
      "name": "RemovingDonatedOrgan",
      "outputs": [],
      "stateMutability": "nonpayable",
      "type": "function"
    },
    {
      "inputs": [],
      "name": "StartDelivery",
      "outputs": [],
      "stateMutability": "nonpayable",
      "type": "function"
    },
    {
      "inputs": [],
      "name": "EndDelivery",
      "outputs": [],
      "stateMutability": "nonpayable",
      "type": "function"
    },
    {
      "inputs": [],
      "name": "ReceiveDonatedOrgan",
      "outputs": [],
      "stateMutability": "nonpayable",
      "type": "function"
    },
    {
      "inputs": [
        {
          "internalType": "uint256",
          "name": "ID",
          "type": "uint256"
        },
        {
          "internalType": "uint256",
          "name": "Date",
          "type": "uint256"
        },
        {
          "internalType": "uint256",
          "name": "Time",
          "type": "uint256"
        }
      ],
      "name": "Organ_Transplantation",
      "outputs": [],
      "stateMutability": "nonpayable",
      "type": "function"
    }
  ],
  "bytecode": "0x608060405234801561001057600080fd5b50600180546001600160a01b0319908116339081179092556000805490911673ff530a0e0e3c59c2b293479429aec1a6a2eec486178155426004556003805460ff191690556040517fca445a24f0b56bf76c7d707d2c943bd713480a45f981c6f6b061200bef132a339190a261095e8061008b6000396000f3fe608060405234801561001057600080fd5b50600436106100a95760003560e01c806377284eea1161007157806377284eea146101035780637e5b85af1461012e578063898f1d411461014157806399a1151d14610154578063b0ca7fb114610167578063c5200e811461018157600080fd5b8063188b7468146100ae5780633202a999146100d65780635336d2b4146100e0578063669e9b9d146100f35780636d737383146100fb575b600080fd5b6100c16100bc3660046107f8565b61019b565b60405190151581526020015b60405180910390f35b6100de610233565b005b6100de6100ee366004610828565b61033a565b6100de6103c0565b6100de6104b4565b600154610116906001600160a01b031681565b6040516001600160a01b0390911681526020016100cd565b600054610116906001600160a01b031681565b6100de61014f3660046107f8565b61059c565b6100de610162366004610854565b6105ea565b6003546101749060ff1681565b6040516100cd91906108ab565b600b5461018e9060ff1681565b6040516100cd91906108c5565b6001600160a01b03811660009081526002602052604081205460ff166102145760405162461bcd60e51b815260206004820152602360248201527f7573657220646f6573206e6f7420657869737420696e20746865206d6170706960448201526237339760e91b60648201526084015b60405180910390fd5b506001600160a01b031660009081526002602052604090205460ff1690565b6001546001600160a01b0316331461025d5760405162461bcd60e51b815260040161020b906108d9565b600460035460ff16600581111561027657610276610895565b146103005760405162461bcd60e51b815260206004820152604e60248201527f43616e277420726563656976652074686520646f6e61746564204f7267616e2060448201527f756e6974206265666f726520616e6e6f756e63696e672074686520656e64206f60648201526d66207468652064656c697665727960901b608482015260a40161020b565b6003805460ff1916600517905560405133907f8503adf53e3183656c667cce31c520993aa631879f174d0a031935f9537b022f90600090a2565b6001546001600160a01b031633146103645760405162461bcd60e51b815260040161020b906108d9565b60068390556009829055600a8190556040805133815260208101859052908101829052606081018390527ff086d48958b78c01c7cc044ca24c2cc7606510829a18e9865c8bd9a780e60eea9060800160405180910390a1505050565b3360009081526002602052604090205460ff166103ef5760405162461bcd60e51b815260040161020b906108d9565b6003805460ff16600581111561040757610407610895565b146104715760405162461bcd60e51b815260206004820152603460248201527f43616e277420656e642064656c6976657279206265666f726520616e6e6f756e60448201527318da5b99c81d1a19481cdd185c9d081bd9881a5d60621b606482015260840161020b565b6003805460ff191660041790556040513381527f68419833cbb385bd8e9a766208f60e8dc0fe3253d009c3410d838ca3c1f1922a906020015b60405180910390a1565b3360009081526002602052604090205460ff166104e35760405162461bcd60e51b815260040161020b906108d9565b600160035460ff1660058111156104fc576104fc610895565b146105605760405162461bcd60e51b815260206004820152602e60248201527f43616e27742073746172742064656c6976657279206265666f72652072656d6f60448201526d3b34b733903a34329037b933b0b760911b606482015260840161020b565b6003805460ff1916811790556040513381527f7d0f0df8f1806d2f409f331004c27d888a97d17e3badc68d0afbbae5b7f84709906020016104aa565b6000546001600160a01b031633146105c65760405162461bcd60e51b815260040161020b906108d9565b6001600160a01b03166000908152600260205260409020805460ff19166001179055565b6000546001600160a01b031633146106145760405162461bcd60e51b815260040161020b906108d9565b600584905560088290556007819055600060035460ff16600581111561063c5761063c610895565b146106895760405162461bcd60e51b815260206004820181905260248201527f446f6e61746564204f7267616e20697320616c72656164792072656d6f766564604482015260640161020b565b6003805460ff1916600117815560009084908111156106aa576106aa610895565b036106ed576005546040805133815260208101929092527f6a9ba01e28ab1ad09d77ce2cc0d70817c64432220b2f87af3d4fab1122325bad910160405180910390a15b600183600381111561070157610701610895565b03610744576005546040805133815260208101929092527fee7f25a220558058a428e88b164af8abbf0d76ee59a054cbab9f0946f25dd849910160405180910390a15b600283600381111561075857610758610895565b0361079b576005546040805133815260208101929092527f790c4e68a5e2b95d14fa79cc14a0971e38b2855eccd03345af5db6669e0183be910160405180910390a15b60038360038111156107af576107af610895565b036107f2576005546040805133815260208101929092527fa85ca2689ef4a626043507642e2c9c314e4d31746b2e8588776f804c183b054b910160405180910390a15b50505050565b60006020828403121561080a57600080fd5b81356001600160a01b038116811461082157600080fd5b9392505050565b60008060006060848603121561083d57600080fd5b505081359360208301359350604090920135919050565b6000806000806080858703121561086a57600080fd5b8435935060208501356004811061088057600080fd5b93969395505050506040820135916060013590565b634e487b7160e01b600052602160045260246000fd5b60208101600683106108bf576108bf610895565b91905290565b60208101600483106108bf576108bf610895565b6020808252602f908201527f5468652073656e646572206973206e6f7420656c696769626c6520746f20727560408201526e37103a3434b990333ab731ba34b7b760891b60608201526080019056fea2646970667358221220bce43906e32aecd8b51182e9b21e2afbc646b1011d3ccadad11c0a953ad2aae064736f6c63430008120033",
  "immutableReferences": {},
  "source": "// SPDX-License-Identifier: GPL-3.0\r\npragma solidity >=0.7.0 <0.9.0;\r\ncontract OrganTransplantation{\r\n        address public DonorSurgeon;\r\n        address public TransplantSurgeon; \r\n        mapping(address => bool)  transporter; \r\n        enum OrganStatus {NotReady, ReadyforDelivery, StartDelivery, onTrack, EndDelivery, OrganReceived}\r\n        OrganStatus public Organstate;\r\n        uint startTime;\r\n        uint Donor_ID;\r\n        uint PatientID;\r\n        uint Removing_time;\r\n        uint Removing_date;\r\n        uint TransplantationDate;\r\n        uint  TransplantationTime;\r\n        enum OrganType {Heart, Lung, Liver, Kidney}\r\n        OrganType public DonatedOrganType;\r\n        \r\n        //Events\r\n        event TransplantationProcessStarted (address indexed DonorSurgeon);\r\n        event DonatedHeartisRemoved(address DonorSurgeon, uint Donor_ID);\r\n        event DonatedLiverisRemoved(address DonorSurgeon, uint Donor_ID);\r\n        event DonatedkidneyisRemoved(address DonorSurgeon, uint Donor_ID);\r\n        event DonatedlungisRemoved(address DonorSurgeon, uint Donor_ID);\r\n        event DeliveryStart (address transporter); \r\n        event DeliveryEnd(address transporter); \r\n        event DonatedOrganisReceived (address indexed TransplantSurgeon);\r\n        event Transplantationend(address TransplantSurgeon, uint PatientID, uint TransplantationTime, uint TransplantationDate);\r\n        \r\n    constructor() {\r\n    TransplantSurgeon = msg.sender;\r\n    DonorSurgeon =0xff530A0E0E3c59C2b293479429aeC1a6a2eec486;\r\n    startTime = block.timestamp;\r\n    Organstate = OrganStatus.NotReady;\r\n    emit TransplantationProcessStarted(msg.sender);\r\n}\r\n\r\nmodifier onlyDonorSurgeon() {\r\n    require(DonorSurgeon == msg.sender, \"The sender is not eligible to run this function\");\r\n    _;\r\n}\r\nmodifier onlyTransplantSurgeon() {\r\n    require(TransplantSurgeon == msg.sender, \"The sender is not eligible to run this function\");\r\n    _;\r\n}\r\n\r\nmodifier onlytransporter() {\r\n    require(transporter[msg.sender], \"The sender is not eligible to run this function\");\r\n    _;\r\n}\r\n// Transporter Authorization Function\r\n\r\n       function assigningtransporter (address user) public onlyDonorSurgeon{\r\n        transporter [user]=true;\r\n    }\r\n       function getTransporterTest (address user) public view returns(bool) {\r\n        require(transporter[user], \"user does not exist in the mapping.\");\r\n        return transporter[user];\r\n    }\r\n       function RemovingDonatedOrgan(uint donorID, OrganType _DonatedOrganType, uint date, uint time ) public onlyDonorSurgeon{\r\n        Donor_ID= donorID;\r\n        Removing_date = date;\r\n        Removing_time = time; \r\n        require(Organstate == OrganStatus.NotReady, \"Donated Organ is already removed\");\r\n        Organstate = OrganStatus.ReadyforDelivery;\r\n         if (_DonatedOrganType == OrganType.Heart){\r\n        \r\n        emit DonatedHeartisRemoved(msg.sender, Donor_ID);\r\n    }\r\n       \r\n         if (_DonatedOrganType == OrganType.Lung){\r\n        \r\n        emit DonatedlungisRemoved(msg.sender,Donor_ID);\r\n    }\r\n            \r\n         if (_DonatedOrganType == OrganType.Liver){\r\n        \r\n        emit DonatedLiverisRemoved(msg.sender,Donor_ID);\r\n    }\r\n         \r\n         if (_DonatedOrganType == OrganType.Kidney){\r\n        \r\n        emit DonatedkidneyisRemoved(msg.sender,Donor_ID);\r\n    }\r\n    \r\n    }\r\n       function StartDelivery() public onlytransporter{\r\n        require(Organstate == OrganStatus.ReadyforDelivery, \"Can't start delivery before removing the organ\");\r\n         Organstate = OrganStatus.onTrack;\r\n        emit DeliveryStart(msg.sender);\r\n    }\r\n    \r\n    function EndDelivery() public onlytransporter{\r\n        require(Organstate == OrganStatus.onTrack, \"Can't end delivery before announcing the start of it\");\r\n        Organstate = OrganStatus.EndDelivery;\r\n        emit DeliveryEnd(msg.sender);\r\n        \r\n    }\r\n    function ReceiveDonatedOrgan() public onlyTransplantSurgeon{\r\n        require(Organstate == OrganStatus.EndDelivery, \"Can't receive the donated Organ unit before announcing the end of the delivery\");\r\n        Organstate = OrganStatus.OrganReceived;\r\n        emit DonatedOrganisReceived(msg.sender);\r\n    }\r\n        function Organ_Transplantation(uint ID, uint Date, uint Time) public onlyTransplantSurgeon{\r\n         PatientID = ID;\r\n         TransplantationDate = Date; \r\n         TransplantationTime = Time;\r\n        emit Transplantationend(msg.sender, PatientID, TransplantationTime, TransplantationDate);\r\n    }\r\n    \r\n    }",
  "sourcePath": "C:\\Users\\DELL\\Desktop\\organchain\\web3\\contracts\\OrganTransplantation.sol",
  "compiler": {
    "name": "solc",
    "version": "0.8.18+commit.87f61d96.Emscripten.clang"
  },
  "schemaVersion": "3.4.11",
  "updatedAt": "2023-03-30T02:08:19.471Z",
  "networkType": "ethereum",
  "devdoc": {
    "kind": "dev",
    "methods": {},
    "version": 1
  },
  "userdoc": {
    "kind": "user",
    "methods": {},
    "version": 1
  }
}